:020000040000FA
:10000000000000EB240000EB2C008FE2000C90E8D5
:1000100000A08AE000B08BE001704AE20B005AE1D8
:100020000000001A1C0000EB0F00BAE818E04FE2D5
:10003000010013E303F0471013FF2FE1C801000094
:10004000D80100000030B0E30040B0E30050B0E35E
:100050000060B0E3102052E27800A128FCFFFF8A84
:10006000822EB0E13000A128003081451EFF2FE133
:1000700001C08FE21CFF2FE11FB5059886460FBC1B
:10008000009C02B07047000001C08FE21CFF2FE10E
:1000900030B47546AE4630BC70470000340000EB0B
:1000A0000210A0E1F1FFFFEB1CC09FE50FC08CE048
:1000B00001001CE30DE08F120FE0A0011CFF2FE1F7
:1000C00001C08FE21CFF2FE100F084F85000000017
:1000D0007847C04603002DE9EAFFFFEB0300BDE8C7
:1000E000410000EB0C009FE50C109FE504209FE50C
:1000F00008309FE51EFF2FE16000004060040040D3
:1001000060000040160000EA58009FE5180090E5E6
:100110000108C0E34C109FE5180081E50100A0E153
:10012000080090E5800080E3080081E50100A0E17F
:10013000100090E5010810E30400000A0100A0E1AE
:100140000C0090E5800080E30C0081E5040000EAEB
:1001500010009FE5040090E5800080E304109FE517
:10016000040081E5E7FFFFEA008002E07047704786
:10017000704700000E50A0E1180000EB05E0A0E180
:100180000050B0E10D10A0E10A30A0E10700C0E38B
:1001900000D0A0E160D08DE220402DE9D0FFFFEB40
:1001A0002040BDE80060A0E30070A0E30080A0E371
:1001B00000B0A0E30710C1E305C0A0E1C009ACE8AE
:1001C000C009ACE8C009ACE8C009ACE801D0A0E1C6
:1001D0001EFF2FE10400C046C0462000FFF778FF55
:1001E00000009FE51EFF2FE10000004001C08FE2EC
:1001F0001CFF2FE101491820ABDFFEE726000200BB
:100200001EFF2FE11402000000000040E80400007F
:0402100044000000A6
:0400000500000000F7
:00000001FF
